:100000000C945E000C9486000C9486000C94860080
:100010000C9486000C9486000C9486000C94860048
:100020000C9486000C9486000C9486000C94860038
:100030000C9486000C9486000C9486000C94860028
:100040000C94F1040C9486000C9486000C948600A9
:100050000C9486000C9486000C9486000C94860008
:100060000C9486000C948600000000080002010039
:100070000003040700000000000000000000000072
:10008000250028002B0000000000240027002A0083
:10009000040404040404040402020202020203032E
:1000A0000303030301020408102040800102040836
:1000B0001020010204081020C005010611241FBEF3
:1000C000CFEFD8E0DEBFCDBF21E0ACE7B1E001C0AB
:1000D0001D92A23BB207E1F711E0A0E0B1E0E6E932
:1000E000F0E102C005900D92AC37B107D9F710E0EE
:1000F000CDE5D0E004C02197FE010E943C06CC353E
:10010000D107C9F70E943B050C943E080C940000EF
:1001100090E0FC01EC55FF4F2491FC01E057FF4FAC
:100120008491882399F090E0880F991FFC01EA5789
:10013000FF4FA591B491FC01E458FF4F8591949134
:100140008FB7F894EC91E22BEC938FBF0895CF9387
:10015000DF93EC01FB01828193819B838A8387E299
:1001600091E09983888384818C8385818D838681C6
:100170008E8388E03796DE01179601900D928A955E
:10018000E1F7FB0187858F878089888B8189898B3F
:1001900082898A8B83898B8B84899589A689B78983
:1001A0008C8B9D8BAE8BBF8BDF91CF910895CF92BF
:1001B000DF92EF92FF920F931F93CF93DF936C0127
:1001C0007A018B01C0E0D0E0CE15DF0581F0D801C7
:1001D0006D918D01D601ED91FC910190F081E02DA2
:1001E000C6010995892B11F02196EECF7E01C7013A
:1001F000DF91CF911F910F91FF90EF90DF90CF9003
:100200000895FB0144815581608171810C94D70070
:1002100090E0FC01E859FF4F2491FC01EC55FF4FA1
:100220003491FC01E057FF4FE491EE2309F43CC008
:10023000222339F1233091F038F42130A9F0223013
:1002400001F584B58F7D12C0273091F02830A1F0E0
:100250002430B9F4809180008F7D03C080918000AC
:100260008F77809380000DC084B58F7784BD09C0DF
:100270008091B0008F7703C08091B0008F7D809314
:10028000B000F0E0EE0FFF1FE458FF4FA591B491CE
:100290009FB7F894611104C08C913095382302C047
:1002A000EC913E2B3C939FBF08953FB7F89480910B
:1002B000810190918201A0918301B091840126B5C2
:1002C000A89B05C02F3F19F00196A11DB11D3FBF8E
:1002D000BA2FA92F982F8827820F911DA11DB11D1C
:1002E000BC01CD0142E0660F771F881F991F4A9518
:1002F000D1F708958F929F92AF92BF92CF92DF92E3
:10030000EF92FF926B017C010E9455014B015C0151
:10031000C114D104E104F104F1F00E945501DC01A3
:10032000CB0188199909AA09BB09883E9340A10508
:10033000B10570F321E0C21AD108E108F10888EE96
:10034000880E83E0981EA11CB11CC114D104E104E5
:10035000F10419F7DDCFFF90EF90DF90CF90BF90C1
:10036000AF909F908F900895CF93DF93EC0160E062
:100370008E810E94080161E08E810E94080160E088
:100380008E810E9408018BE891E00197F1F7DF91DF
:10039000CF910895CF92DF92EF92FF920F931F9328
:1003A000CF93DF936C017C0187E0E80EF11CC0E085
:1003B000D0E0062F10E0B8010C2E02C075956795AD
:1003C0000A94E2F76170F70181917F010E940801B0
:1003D0002196C430D10579F7C601DF91CF911F91E5
:1003E0000F91FF90EF90DF90CF900C94B401CF92DB
:1003F000DF92EF92FF920F931F93CF93DF93EC0165
:10040000F62E642F8C810E9408018D818F3F19F098
:1004100060E00E9408018F850F2D10E084FF25C049
:100420006E0187E0C80ED11CE12CF12CB8010E2C16
:1004300002C0759567950A94E2F76170F6018191A3
:100440006F010E940801FFEFEF1AFF0A88E0E8162B
:10045000F10461F7CE01DF91CF911F910F91FF90D1
:10046000EF90DF90CF900C94B401B80184E07595C3
:1004700067958A95E1F7CE010E94CA016F2DCE01E2
:10048000DF91CF911F910F91FF90EF90DF90CF9070
:100490000C94CA0141E00E94F70181E090E00895C8
:1004A00040E00C94F701FC01443008F043E08389FC
:1004B000481710F04FEF480FDF01A40FB11D5496FD
:1004C0009C91690F6068CF010C94500261E00E941A
:1004D00050028BE39FE10197F1F70895EF92FF92AD
:1004E0000F931F93CF93DF93EC01423018F08F8569
:1004F00088608F874B8B1C8A80E48D8B6E8B70E0BD
:10050000605C7F4F6F8B8C810E9488008D818F3F54
:1005100011F00E9488008E810E9488007E0187E091
:10052000E80EF11C00E010E08F8584FD03C084E03C
:1005300090E002C088E090E00817190744F4F70142
:1005400081917F010E9488000F5F1F4FEDCF8BE3E9
:100550009DE00197F1F760E08C810E94080160E066
:100560008E810E9408018D818F3F19F060E00E940A
:1005700008016F8564FD1DC063E0CE010E94CA01C1
:100580000BE416E4C8010197F1F763E0CE010E9485
:10059000CA01C8010197F1F763E0CE010E94CA01C8
:1005A00083E592E00197F1F762E0CE010E94CA0173
:1005B00016C06062CE010E9450028BE496E401975F
:1005C000F1F76F856062CE010E94500283E592E0F0
:1005D0000197F1F76F856062CE010E9450026F852E
:1005E0006062CE010E94500284E0888B6CE0CE01F4
:1005F0000E945002CE010E94660282E0898B66E072
:10060000CE01DF91CF911F910F91FF90EF900C944D
:100610005002089580E090E00895FC01808191816E
:10062000009711F00C94DA0608950E9429080F93A0
:100630001F93CF93DF93EC0188819981009729F074
:100640002A813B812617370788F48B016F5F7F4F24
:100650000E946307009761F0998388831B830A8354
:100660002C813D81232B11F4FC01108281E001C01B
:1006700080E0DF91CF911F910F910895EF92FF924B
:100680000F931F93CF93DF93EC017B018A01BA0193
:100690000E9417032881398181110DC02115310570
:1006A00019F0C9010E94DA06198218821D821C8283
:1006B0001B821A8206C01D830C83B701C9010E94E8
:1006C0003708CE01DF91CF911F910F91FF90EF90EE
:1006D0000895EF92FF920F931F93CF93DF93EC0156
:1006E000062F142F790160E00E94530244E150E08C
:1006F0006FE271E0CE010E94D700412F602FCE0142
:100700000E945302B701CE010E94010148E050E06F
:100710006AE171E083EA91E0DF91CF911F910F913F
:10072000FF90EF900C943E03FC0111821082138223
:100730001282158214826115710551F0FB0101903E
:100740000020E9F73197AF01461B570B0C943E038D
:1007500008950F931F93CF93DF93CDB7DEB76E97B6
:100760000FB6F894DEBF0FBECDBF8C010E946602AB
:1007700064E471E0CE0149960E949403B801CE0171
:1007800001960E94A7009E01275E3F4F40E050E087
:1007900061E070E0CE0101960E946903CE014996A6
:1007A0000E940D0367E571E0CE0149960E94940313
:1007B000B801CE0101960E94A7009E01275E3F4F1F
:1007C00041E050E065E070E0CE0101960E946903CF
:1007D000CE0149960E940D0362E671E0CE01499672
:1007E0000E949403B801CE0101960E94A7009E01C9
:1007F000275E3F4F42E050E068E070E0CE01019696
:100800000E946903CE0149960E940D0365E671E0DE
:10081000CE0149960E949403B801CE0101960E9430
:10082000A7009E01275E3F4F43E050E063E070E089
:10083000CE0101960E946903CE0149960E940D03E4
:1008400047E050E062E171E083EA91E00E943E03FC
:100850006E960FB6F894DEBF0FBECDBFDF91CF917D
:100860001F910F910895CF93DF93CDB7DEB7AE9769
:100870000FB6F894DEBF0FBECDBF5C012B01FB01AC
:100880000480F581E02DFCA7EBA740E060E00E942A
:100890005302E12CF12C00E010E02BA53CA5200F29
:1008A000311F3EA72DA71EA21DA218A61FA21AA681
:1008B00019A6F201608171816115710531F04481E1
:1008C0005581CE0185960E943E03B501CE01019669
:1008D0000E94A70029A43AA462E471E0CE014F96D9
:1008E0000E94940363E471E0CE0149960E94940350
:1008F000612C712C621473041CF58BA19CA18F8C4C
:1009000098A081149104C1F00097B1F0CD8CDE8CD9
:10091000C80ED91EB601CE0149960E94170388233E
:1009200059F0298D3A8D8D8D9E8DB401820F931FC4
:100930000E943708DE8ECD8EFFEF6F1A7F0ADACF66
:100940004E2D602FCE0101960E945302BE01675EBC
:100950007F4FCE0101960E9401014E2D602FCE01E6
:1009600001960E945302BE016B5D7F4FCE0101963E
:100970000E9401014BE050E066E071E083EA91E003
:100980000E943E03CE0149960E940D03CE014F9670
:100990000E940D03CE0185960E940D0368EC70E065
:1009A00080E090E00E947A01C5010E946602809179
:1009B000AC019091AD012DA53EA5281739071CF477
:1009C0000F5F1F4F05C03FEFE31AF30A00E010E08E
:1009D0008091AA019091AB01E816F9060CF45DCF65
:1009E00058CF1F920F920FB60F9211242F933F935F
:1009F0008F939F93AF93BF9380917D0190917E01E0
:100A0000A0917F01B091800130917C0123E0230F00
:100A10002D3720F40196A11DB11D05C026E8230F36
:100A20000296A11DB11D20937C0180937D019093BE
:100A30007E01A0937F01B09380018091810190910C
:100A40008201A0918301B09184010196A11DB11D85
:100A50008093810190938201A0938301B0938401DC
:100A6000BF91AF919F918F913F912F910F900FBEAA
:100A70000F901F901895CF93DF93CDB7DEB7A49753
:100A80000FB6F894DEBF0FBECDBF789484B58260F8
:100A900084BD84B5816084BD85B5826085BD85B522
:100AA000816085BD80916E00816080936E001092A0
:100AB000810080918100826080938100809181001B
:100AC00081608093810080918000816080938000AC
:100AD0008091B10084608093B1008091B00081600A
:100AE0008093B00080917A00846080937A00809136
:100AF0007A00826080937A0080917A00816080938E
:100B00007A0080917A00806880937A001092C10008
:100B100065E871E0CE0101960E94A700CE01019622
:100B20000E94A90368E873E180E090E00E947A01E6
:100B300085E891E00E94660264E771E0CE014F967D
:100B40000E9494031A8E198E1C8E1B8E1E8E1D8E73
:100B50006F8D78A16115710531F04BA15CA1CE01BB
:100B600049960E943E0365E871E0CE0101960E941D
:100B7000A700BE01675E7F4FCE0101960E9433043D
:100B8000CF93DF9363E471E083EA91E00E949403E2
:100B9000CDE9D1E01C8652E0588343E0498334E03C
:100BA0003A8325E02B8396E09C8387E08D8364E184
:100BB00070E0788B6F8764E070E07E876D87E5E892
:100BC000F1E01382128267E271E0718360835483E3
:100BD0005FEF55834683378320879187828713860B
:100BE000148615861686178641E060E1CF010E94C3
:100BF0006E024D856F8585E891E0DF91CF910C9471
:100C00006E0283EA91E00C940D032F923F924F9273
:100C10005F926F927F928F929F92AF92BF92CF928C
:100C2000DF92EF92FF920F931F93CF93DF93CDB795
:100C3000DEB7CA1BDB0B0FB6F894DEBF0FBECDBF0D
:100C400009942A88398848885F846E847D848C84DE
:100C50009B84AA84B984C884DF80EE80FD800C81E7
:100C60001B81AA81B981CE0FD11D0FB6F894DEBFCA
:100C70000FBECDBFED010895EE0FFF1F0590F4915B
:100C8000E02D09940F931F93CF93DF93823091054A
:100C900010F482E090E0E091B001F091B10120E029
:100CA00030E0A0E0B0E0309719F14081518102813D
:100CB000138148175907C8F08417950769F41097EE
:100CC00031F012960C93129713961C9327C0009341
:100CD000B0011093B10122C02115310519F042175E
:100CE000530718F49A01BD01EF01DF01F801DBCFD2
:100CF00021153105F9F0281B390B2430310580F41A
:100D00008A819B816115710521F0FB0193838283A8
:100D100004C09093B1018093B001FE01329644C0AB
:100D2000FE01E20FF31F8193919322503109398321
:100D300028833AC02091AE013091AF01232B41F4BA
:100D400020910201309103013093AF012093AE0155
:100D500020910001309101012115310541F42DB799
:100D60003EB74091040150910501241B350BE091E1
:100D7000AE01F091AF01E217F307A0F42E1B3F0B79
:100D80002817390778F0AC014E5F5F4F24173507FD
:100D900048F04E0F5F1F5093AF014093AE01819317
:100DA000919302C0E0E0F0E0CF01DF91CF911F917D
:100DB0000F910895CF93DF93009709F481C0FC0150
:100DC000329713821282A091B001B091B1011097B5
:100DD00081F420813181820F931F2091AE013091E7
:100DE000AF012817390751F5F093AF01E093AE0139
:100DF00067C0ED0120E030E0CE17DF0740F44A8104
:100E00005B819E0141155105F1F0EA01F5CFD383D5
:100E1000C28340815181840F951FC817D90759F4A7
:100E200088819981840F951F0296918380838A819E
:100E30009B81938382832115310529F4F093B101BD
:100E4000E093B0013DC0E901FB83EA8349915991E8
:100E5000C40FD51FEC17FD0761F480819181840FC9
:100E6000951F0296E90199838883828193819B83F0
:100E70008A83E0E0F0E012968D919C9113970097A1
:100E800019F0FD01DC01F7CF8D919C9111979D0127
:100E90002E5F3F4F820F931F2091AE013091AF0123
:100EA0002817390769F4309729F41092B10110928C
:100EB000B00102C013821282B093AF01A093AE01C1
:100EC000DF91CF910895A0E0B0E0E9E6F7E00C945F
:100ED0000906EC01009721F4CB010E944206B4C040
:100EE000FC01E60FF71F9C0122503109E217F307BE
:100EF00008F4A8C0D9010D911C9111970617170786
:100F0000B0F00530110508F49BC0C801049786179E
:100F1000970708F495C002501109061B170B01939F
:100F200011936D937C93CF010E94DA0689C05B0117
:100F3000A01AB10A4C01800E911EA091B001B0918F
:100F4000B101612C712CE12CF12C109709F446C0F1
:100F50008D919C911197A815B905B1F56C0142E0EE
:100F6000C40ED11CCA14DB0478F14C018A189B080A
:100F7000640142E0C40ED11C1296BC9012971396E5
:100F8000AC91B5E0CB16D10440F0B282A38391823C
:100F90008082D9016D937C9309C00E5F1F4F800F33
:100FA000911FF90191838083EB2DFA2FE114F10455
:100FB00031F0D7011396FC93EE93129741C0F09352
:100FC000B101E093B0013CC06816790608F43C0119
:100FD0007D0112960D90BC91A02DB7CF8091AE01EE
:100FE0009091AF0188169906E1F466167706C8F469
:100FF0008091000190910101009741F48DB79EB757
:101000004091040150910501841B950BE817F907E5
:10101000C8F4F093AF01E093AE01F90171836083EE
:101020000FC0CB010E9442067C01009759F0A80135
:10103000BE010E942E08CE010E94DA06C70104C03C
:10104000CE0102C080E090E0CDB7DEB7EEE00C94B8
:10105000250681E090E0F8940C943E08FB01DC0149
:1010600002C001900D9241505040D8F70895FB0105
:10107000DC0101900D920020E1F7089510E0CDE52C
:10108000D0E004C0FE010E943C062196CE35D10777
:06109000C9F7F894FFCF40
:101096000000B20120007772697465537472696E3C
:1010A600670077656C636F6D65007772697465526A
:1010B6006F7700000000004A02D7000A03090320E8
:1010C600202020202020202020202020202020201A
:1010D600202020004C4344204C69627261727920C2
:1010E6006D6F64756C65004F4F502044657369677A
:1010F6006E00425900426F6E6F6C6F204B204E7926
:0C1106006F6E69004C4344204F4F5000B6
:00000001FF
